:020000040800F2
:1000000078080020B5010008BD010008BF01000804
:10001000C1010008C3010008C5010008000000007C
:10002000000000000000000000000000C701000800
:10003000C901000800000000CB0100083D040008D1
:10004000CF010008CF010008CF010008CF01000850
:10005000CF010008CF010008CF010008CF01000840
:10006000CF010008CF010008CF010008CF01000830
:10007000CF010008CF010008CF010008CF01000820
:10008000CF010008CF010008CF010008CF01000810
:10009000CF010008CF010008CF010008CF01000800
:1000A000CF010008CF010008CF010008CF010008F0
:1000B000CF010008CF010008CF010008CF010008E0
:1000C000CF010008CF010008CF010008CF010008D0
:1000D000CF010008CF010008690500088505000868
:1000E000CF010008CF010008CF01000800F002F89E
:1000F00000F050F814A696E8000CB244B344DA4578
:1001000001D100F047F8BAE80F000FA696E83000DA
:10011000A5EB040504EB0607AAEB0704A7F101070A
:100120004FEA15154FEA3414A4F10104AC4201D38F
:1001300000F030F813F0010F18BFFB1A43F0010371
:1001400000F001F8DBE71847101600003016000039
:10015000103A24BF78C878C1FAD8520724BF30C8F3
:1001600030C144BF04680C60704700007047000055
:100170000023002400250026103A28BF78C1FBD8B0
:10018000520728BF30C148BF0B6070471FB51FBD65
:1001900010B510BD00F031F81146FFF7F7FF00F081
:1001A00025FD00F04FF803B4FFF7F2FF03BC00F0A9
:1001B00057F800000948804709480047FEE7FEE776
:1001C000FEE7FEE7FEE7FEE7FEE7FEE7FEE7FEE707
:1001D00004480549054A064B70470000AD04000875
:1001E000ED00000878020020780800207804002044
:1001F00078040020704770477047754600F02CF86F
:10020000AE4605006946534620F00700854618B003
:1002100020B5FFF7DDFFBDE820404FF000064FF0AE
:1002200000074FF000084FF0000BAC46ACE8C009E7
:10023000ACE8C009ACE8C009ACE8C00921F007018E
:100240008D46704710B50446AFF300802046BDE8E8
:100250001040FFF7A8BF00000048704720000020B2
:1002600001491820ABBEFEE72600020070470000DF
:100270004EF21401CEF200014AF2DF50C0F201004A
:1002800008604EF21801CEF20001002008607047AD
:1002900084B0ADF80E00ADF80C1002200190BDF84E
:1002A0000E00012809D1FFE7019940F60000C4F2D1
:1002B000010000EB810002901DE0BDF80E00022855
:1002C00009D1FFE7019940F60040C4F2010000EBBC
:1002D000810002900EE0BDF80E00032809D1FFE76F
:1002E000019941F20000C4F2010000EB810002908C
:1002F000FFE7FFE7FFE702980068BDF80C10012256
:100300008A401043C8400090009804B07047000035
:1003100080B500F001F880BD84B000200390029009
:1003200041F20001C4F20201086840F48030086024
:10033000FFE741F20000C4F20200006800F4003060
:100340000290039801300390FFE70299002001908A
:1003500039B9FFE70398B0F5A06018BF01200190FC
:10036000FFE70198C0070028E3D1FFE741F2000052
:10037000C4F2020000688003002803D5FFE70120D3
:10038000029002E000200290FFE70298012851D17C
:10039000FFE742F20001C4F20201086840F01000D9
:1003A0000860086820F007000860086840F0020054
:1003B000086041F20401C4F202010091086808607B
:1003C00008680860086840F480600860086820F4E5
:1003D0007C100860086840F4E810086041F20001F1
:1003E000C4F20201086840F080700860FFE741F243
:1003F0000000C4F2020000688001002801D4FFE779
:10040000F5E741F20401C4F20201086820F003009C
:100410000860086840F002000860FFE741F204004D
:10042000C4F20200006800F00C00082801D0FFE7C9
:10043000F4E700E0FFE704B07047000080B5032058
:100440000D2100F041FC80BD72B64EF21001CEF2DB
:100450000001002008604EF21403CEF200036FF09A
:100460007F421A604EF21802CEF2000210600520A0
:10047000086062B67047000072B64EF21001CEF20C
:100480000001002008604EF21403CEF2000347F68C
:10049000C022C0F210021A604EF21802CEF2000220
:1004A00010600720086062B67047000080B541F216
:1004B0000002C4F20202106840F00100106041F234
:1004C0000401C4F2020108680023CFF6FF031840BC
:1004D000086010684FF6FF73CFF6F663184010609F
:1004E000106820F480201060086820F4FE00086086
:1004F00041F20801C4F202014FF41F000860FFF747
:1005000007FF4EF60851CEF200014FF00060086080
:1005100080BD000080B582B00190FFE7019838B13E
:10052000FFE7FFF7A5FEFFE7019801380190F5E727
:1005300002B080BD80B584B0ADF80E0002910020FD
:100540000190FFE702980199405C58B1FFE7BDF8C0
:100550000E000299019A895C00F038F90198013087
:100560000190EFE704B080BD80B540F20001C2F217
:10057000000140F28002C2F20002022000F092F874
:1005800080BD000080B540F20E01C2F2000140F2D1
:100590007A12C2F20002032000F084F880BD00004D
:1005A00080B58EB0ADF836000C9145F20010C0F267
:1005B00025200B9042F68820C4F28110099000207B
:1005C0000890BDF8360001280DD1FFE74AF200205F
:1005D000C0F24A400B9042F68820C4F29110099074
:1005E00000200890FFE70B980C990901B0FBF1F08F
:1005F0000B9008980090099801900C98000100F069
:10060000FCFD024600980B46019900F031FC029077
:1006100003910B9800F0F1FD024602980B460399F6
:1006200000F074FF002204920023C4F2300300F0B3
:100630006FFE099108900898099900F0B1FD0A90A1
:100640000A9800F0DAFD089A099B00F05FFF049A0F
:100650000023C4F2590300F05BFE049A0791069050
:10066000069807990023C4F2490301F059F878B9B4
:10067000FFE70A9801300A900A98102807D1FFE78F
:100680000020099008900B9801300B90FFE7FFE7DE
:100690000B98000105900A99059808440590059863
:1006A0000EB080BD80B584B0ADF80E00029101920D
:1006B0000298808860BBFFE7BDF80E0000F034F8B8
:1006C0000199029A128888540298C088A8B1FFE75D
:1006D000019802990A88805C0989884207D1FFE75E
:1006E00002990020088002990120488004E00299C4
:1006F000088801300880FFE709E002990888013086
:100700000880029948898881FFF7B6FEFFE709E073
:10071000BDF80E00009000F007F80146009800F0C8
:1007200055F8FFE704B080BD81B0ADF80200BDF818
:100730000200012813D1FFE7FFE743F60000C4F2EF
:10074000010000888006002801D4FFE7F5E743F6A2
:100750000400C4F2010000888DF8010031E0BDF80A
:100760000200022813D1FFE7FFE744F20040C4F281
:10077000000000888006002801D4FFE7F5E744F276
:100780000440C4F2000000888DF8010018E0BDF8B4
:100790000200032813D1FFE7FFE744F60000C4F28C
:1007A000000000888006002801D4FFE7F5E744F642
:1007B0000400C4F2000000888DF80100FFE7FFE7A5
:1007C000FFE79DF8010001B07047000081B0ADF86F
:1007D00002008DF80110BDF80200012813D1FFE7D7
:1007E000FFE743F60000C4F201000088400600283D
:1007F00001D4FFE7F5E79DF8010043F60401C4F2D8
:100800000101088031E0BDF80200022813D1FFE7A2
:10081000FFE744F20040C4F20000008840060028D0
:1008200001D4FFE7F5E79DF8010044F20441C4F26A
:100830000001088018E0BDF80200032813D1FFE78B
:10084000FFE744F60000C4F20000008840060028DC
:1008500001D4FFE7F5E79DF8010044F60401C4F276
:1008600000010880FFE7FFE7FFE701B070470000E5
:1008700080B58EB0ADF836000C91BDF836000C99FD
:10088000FFF78EFE0B9041F21801C4F202010868D6
:1008900040F001000860BDF83600012839D1FFE7BB
:1008A00072B641F21801C4F20201086840F48040B7
:1008B000086001200890092103220023099300F019
:1008C00013F90898099A0A21022300F00DF90B9AEE
:1008D00043F60801C4F2010108881043088043F67A
:1008E0000C01C4F201010A91088840F00800088058
:1008F000088840F004000880088840F40050088010
:10090000088840F020000880252000F0D5F862B665
:100910007FE0BDF8360002283BD1FFE772B641F216
:100920001C01C4F20201086840F400300860012094
:10093000039002210691032204920023059300F004
:10094000D3F803980499059A069B00F0CDF80B9A0A
:1009500044F20841C4F2000108881043088044F2C0
:100960000C41C4F200010791088840F0080008809B
:10097000088840F004000880088840F4005008808F
:10098000088840F020000880262000F095F862B624
:100990003EE0BDF83600032839D1FFE772B641F2D8
:1009A0001C01C4F20201086840F4802008600220A3
:1009B00001900A2103220023009300F095F8009A89
:1009C000019B0B21184600F08FF80B9A44F60801A2
:1009D000C4F2000108881043088044F60C01C4F2F8
:1009E00000010291088840F008000880088840F063
:1009F00004000880088840F400500880088840F00F
:100A000020000880272000F057F862B6FFE7FFE7D4
:100A1000FFE70EB080BD000084B0ADF80E00ADF869
:100A20000C10ADF80A2003200090BDF80E0001283C
:100A300009D1FFE7009940F60000C4F2010000EB85
:100A4000810001901DE0BDF80E00022809D1FFE7EA
:100A5000009940F60040C4F2010000EB81000190D3
:100A60000EE0BDF80E00032809D1FFE7009941F21E
:100A70000000C4F2010000EB81000190FFE7FFE7F6
:100A8000FFE7BDF80A0058B1FFE7BDF80A00BDF85E
:100A90000C1000FA01F2019908681043086009E09F
:100AA000BDF80C10012000FA01F20199086890438A
:100AB0000860FFE704B0704781B08DF803009DF92E
:100AC000030000280ED4FFE79DF9031001F01F0278
:100AD000012090404A094EF20011CEF2000141F887
:100AE0002200FFE701B0704784B0ADF80E00ADF80A
:100AF0000C10ADF80A20ADF80830BDF80C00ADF8C8
:100B000002000020ADF80000BDF80C00082809DB49
:100B1000FFE7BDF802000838ADF802000120ADF88B
:100B20000000FFE7BDF80E00012812D1FFE741F2F7
:100B30001801C4F20201086840F004000860BDF822
:100B4000001040F60000C4F2010000EB81000190AB
:100B50002FE0BDF80E00022812D1FFE741F2180184
:100B6000C4F20201086840F008000860BDF80010F7
:100B700040F60040C4F2010000EB8100019017E054
:100B8000BDF80E00032812D1FFE741F21801C4F2AC
:100B90000201086840F010000860BDF8001041F242
:100BA0000000C4F2010000EB81000190FFE7FFE7C5
:100BB000FFE7BDF8020081000F2000FA01F2019961
:100BC000086890430860BDF80A00BDF802108A006A
:100BD0009040BDF808100232914040EA01020199AC
:100BE00008681043086004B07047000080B586B004
:100BF00000200590FFF728FC022003904FF4E1311C
:100C0000FFF736FE032004904FF41651FFF730FE35
:100C10006420FFF77FFC039841F23C71C0F60001AD
:100C2000FFF788FC049841F24A71C0F60001FFF713
:100C300081FCFFE740F20000C2F20000408801287A
:100C400012D1FFE740F28001C2F2000102910320BD
:100C5000FFF770FC029840F20002C2F2000200218D
:100C6000518000F01DF8FFE740F20E00C2F20000D4
:100C70004088012812D1FFE740F27A11C2F2000148
:100C800001910220FFF756FC019840F20E02C2F2D9
:100C900000020021518000F003F8FFE7CAE70000DE
:100CA00082B0019000200090FFE701980099405C1D
:100CB00040B1FFE70199009A002088540098013064
:100CC0000090F2E702B0704780B582B0ADF8060040
:100CD000ADF80410BDF80600BDF80410FFF7D8FA0F
:100CE00040B1FFE7BDF80600BDF804100022FFF791
:100CF00093FE07E0BDF80600BDF804100122FFF7DF
:100D00008BFEFFE702B080BD10B591EA030F48BF2C
:100D100083F0004300F10284841A71EB030C05D2C6
:100D2000121943EB0C03001B61EB0C014FEA115449
:100D3000A4EB135CDFF81CE11EEA430F18BF9EEA28
:100D4000445F00F0748021EA045123EA0E0343F467
:100D50008013DCF1200E32D322FA0CFE10EB0E00D1
:100D600023FA0CFE41EB0E01CCF1200E03FA0EFE2D
:100D700010EB0E00CCF1200E51F10001B1F5801FF7
:100D800032D201EB045112FA0EF2BDE8104058BF06
:100D90007047401C38BF5FEA420218BF7047002806
:100DA00014BF20F0010041F100014FEA410313F5A7
:100DB000001F38BF7047A1F1C04100F0A1BB012A5C
:100DC00043EB0302ACF1200CDCF11F0E32BF4FF0FD
:100DD000000E23FA0CF310EB030041EB0451B4EBCB
:100DE000115FD0D0A1EB045101F58011490801EB4E
:100DF00004515FEA30000ED350F1000038BF12FA00
:100E00000EFE08D1BDE81040C9E7401C38BF5FEABC
:100E10004202CAD1C3E7BDE810404FEA410313F5CF
:100E2000001F38BF7047A1F1C04100F069BB9EEAC6
:100E3000445F08D011EA5E0FBDE8104004BF01F026
:100E4000004100207047BDE8104070B500F00AFB7B
:100E500064FBBE3E0000E0FF491058BFC1F14041B5
:100E60005B1058BFC3F140438B42EFF300807047E3
:100E70002DE9C04130B4DFF8A8C23CEA111418BF14
:100E80003CEA131400F0F0801CEA111481EA030517
:100E900044EAD57418BF1CEA131500F0CB80A4EB0C
:100EA000050404F17F7404F500344FF0004545EA71
:100EB000C12145EAC32341EA505143EA52534FEA64
:100EC000C0204FEAC222994208BF904200F0A080A1
:100ED0004FEA13650FF24816765D4FEA134506FB9D
:100EE00005F7C7F1807706FB07F74FEAD737A7FB6F
:100EF00003687642A7FB06CEC8F5803838BFA8F154
:100F0000010807FB08E6A6FB028C4FF0000EE6FB8B
:100F100003CED8F100086FEA0C0C5CF1000C6FEA0C
:100F20000E0E4EF1004EA6FB0C584FF00007E6FBEC
:100F30000E87A1FB08C6A0FB07CE16EB0E064FF0EE
:100F4000000545F10005E1FB076515F1E04E7EBFA8
:100F5000A4F580345FEA46066D4116F1800745F13D
:100F600000054FEA172747EA05674FEA15254FEABC
:100F70000666A6F1DE46B6F1805F20D9384605EB5D
:100F8000C47124F0010C01EB0C11BCF1FE6F02D80E
:100F9000F0BCBDE8008124425CBF01F5801E9EEAE2
:100FA000C47F02D4F0BCBDE80081244200F1398046
:100FB000A1F1C041F0BCBDE8004100F0A1BA4FEA88
:100FC000D02040EA41504FEAD1214FEAD22242EAF2
:100FD00043524FEAD323A7FB028607FB036605FBB8
:100FE00002661EEA0E0F58BFA6EB0056B6EB00567F
:100FF0004FEA520E4EEAC37E18EB0E0E56EB530E1E
:10100000BCD518EB02085E417F1C55F10005B5E721
:101010004FF480154FF000074FF000064FF0000826
:10102000ACE701F1C04101F000414FF00000F0BC1D
:10103000BDE800810CEA131511EA0C1F00D00CE08A
:1010400013EA0C1F00F025804FF0000081EA030135
:1010500001F00041F0BCBDE80081F0BCBDE80041FA
:1010600081EA030100F04CBAF0BCBDE8004170B564
:1010700000F0F8F9097EFC3E00F007B84FF00000E0
:1010800081EA030101F00041704781EA030100F0A9
:1010900037BAF0BCBDE8004122494FF0000070476C
:1010A000FFFDFBF9F7F5F4F2F0EEEDEBE9E8E6E42D
:1010B000E3E1E0DEDDDBDAD8D7D5D4D3D1D0CFCDB4
:1010C000CCCBCAC8C7C6C5C4C2C1C0BFBEBDBCBBED
:1010D000BAB9B8B7B6B5B4B3B2B1B0AFAEADACABE8
:1010E000AAA9A8A8A7A6A5A4A3A3A2A1A09F9F9EC2
:1010F0009D9C9C9B9A999998979796959594939374
:10110000929191908F8F8E8E8D8C8C8B8B8A89890A
:10111000888887878685858484838382828181808D
:101120000000FF070000F87F51EA030C17D41CF5FC
:10113000801F58BFBCF5801F00F10680994218BF80
:10114000704708BF9042704707D711F5801F58BFFE
:1011500013F5801F19D499427047894270471CF5D6
:10116000801F08D5BCF5801FF7D58B4218BF70478C
:1011700008BF824270474FF4001C1CEB410F38BF80
:101180001CEB430F01D28B42704770B500F06AF937
:10119000922449004FF000514FF08053FFF75CBE9E
:1011A0004FEA1153A3F58063D3F11E03A8BFD3F117
:1011B000200C08DB4FF0004242EAC12252EA5052B2
:1011C00032FA03F0704709420BD4102BC4BF002041
:1011D000704703F5787CBCF1FF3F05D04FF0FF303E
:1011E00070474FF00000704770B500F03BF900BF4A
:1011F0004992248000207047F0E7B0FA80F310FA9B
:1012000003F10AD0C3F11D0303F580634FEA0352D3
:101210004FEA415002EBD12170474FF00000704778
:1012200051EA030C17D41CF5801F58BFBCF5801F72
:1012300000F10680994218BF704708BF904270477E
:1012400007D711F5801F58BF13F5801F19D4994295
:101250007047894270471CF5801F08D5BCF5801F78
:10126000F7D58B4218BF704708BF824270474FF4D2
:10127000001C1CEB410F38BF1CEB430F01D28B420B
:10128000704770B500F0EEF8922449004FF080519D
:101290004FF00053FFF7E0BD51EA030C17D41CF5E3
:1012A000801F58BFBCF5801F00F10680994218BF0F
:1012B000704708BF9042704707D711F5801F58BF8D
:1012C00013F5801F19D499427047894270471CF565
:1012D000801F08D5BCF5801FF7D58B4218BF70471B
:1012E00008BF824270474FF4001C1CEB410F38BF0F
:1012F0001CEB430F01D28B42704770B500F0B2F87F
:10130000922449004FF000514FF08053FFF7A4BDE5
:1013100070B5DFF848C11CEA111E1EBF1CEA131588
:101320009EEA0C0F95EA0C0F00F06F8081EA03042F
:101330004EEAD47EAE4421EA4C1123EA4C1341F428
:10134000801143F48013AEF17F7EA1FB024CA0FB21
:101350000365361955EB0C05A1FB034C4CF100035A
:10136000A0FB021C16EB0C06654153F10003094279
:1013700018BF46F0010613F4007F0BD14FEA03318A
:101380004FEA053041EA155140EA165034036FF038
:1013900003020AE04FEAC3214FEAC52041EA555152
:1013A00040EA5650F4026FF0020202EB2E4201EBCB
:1013B000025585EACE710AD05FEA440C18BF24F0CA
:1013C000004450F1000041F1000120EAD47040F2E5
:1013D000FE7C624500D270BDA84214BF4FF080442D
:1013E0004FF04044002E08BF0024BEF1806FA8BF1C
:1013F000A1F1C041BDE8704080F2828001F1C0419E
:1014000001F000414FF0000070470CEA13159EEA0E
:101410000C0F18BF95EA0C0F06D081EA030E4FF0AF
:1014200000000EF0004170BD00F01CF88900013E84
:1014300000F007B800F009B84FEA430C5FEA5C5CC3
:1014400008D081EA030100F05BB84FEA410C5FEA83
:101450005C5CF6D102494FF0000070470000FF07C6
:101460000000F87F0EF1020E2EF0030E5EF8046B02
:10147000364205D4012A43EB030515F5001F12D8A7
:10148000012841EB010C1CF5001F0CD80ED14FEACE
:10149000D17C0CEB4C0C0CF1020C15F5001F08BFB5
:1014A0004CEBD37C04E04FF0080C01E04FEAD37C16
:1014B0000CEB4C0526FA05F606F00706B6F1040C0F
:1014C00006D20EEB860CBDE870404CF0010C604774
:1014D000DFE80CF0090B02024FF00041A1F50021FA
:1014E0004FF0000070BD19461046012851EB010471
:1014F00018BFD4F5001484BF002001F0004170BD76
:101500000808A0F500114FEA3101704710B591EAC3
:10151000030F48BF83F000433FF5FEAB841A71EB25
:10152000030C07D28CF0004C121943EB0C03001B88
:1015300061EB0C014FEA1154A4EB135CDFF8A4E15A
:101540001EEA430F18BF9EEA445F00F0B48021EA10
:10155000045123EA6E035242C3EB6E0338BF5B1E95
:10156000DCF1200E25D322FA0CFE10EB0E0043FA1C
:101570000CFE41EB0E01CCF1200E03FA0EFE10EB37
:101580000E00CCF1200E51F1000129D401EB0451E1
:1015900012FA0EF2BDE8104058BF7047401C1CBF45
:1015A000B2F1004F704700280CBF491C20F0010029
:1015B000704712EB020E43EB030218BF4FF0010E0F
:1015C0004EEA4202ACF1200CDCF11E0E56D943FA71
:1015D0000CFE10EB0E00CCF11E0E51F1FF31D5D5F3
:1015E0000EF1010E12FA0EFE404141EB010101EB3A
:1015F000445C5FEA5C5C10D901EB045110EBDE70D7
:1016000038BFBEF1004FBDE8104018BF704700283A
:101610000CBF491C20F00100704734D24FEAD42C93
:1016200024F4006411F500111BD0B1FA81F20B3AD9
:10163000A41AA41ED2F12003914030FA03F31943F7
:10164000904001EBCC7101EB0451002CBDE810403F
:10165000A8BF704701F1C04101F000414FF0000008
:101660007047B0FA80F310FA03F102D1BDE81040E0
:101670007047E41A173C4805C90AE2E701EB045138
:10168000BDE81040704749104FEA300001EB0451AB
:10169000BDE8104002E04FF0000170474A0008BF6B
:1016A0000042F8D0B2F5001F28BF704701F000419A
:1016B0004FF0000070479EEA445F07D011EA5E0FCA
:1016C000BDE8104004BF002100207047BDE8104075
:1016D00070B5FFF7C7FE00BF40DFF63E104683F04F
:1016E000004170470000E0FF10B5FFF71DFD0CBF83
:1016F0000120002010BD10B5FFF716FD14BF01201A
:10170000002010BD10B5FFF78BFD8CBF012000201D
:1017100010BD10B5FFF784FD2CBF0120002010BDC7
:1017200010B5FFF7B9FD94BF0120002010BD10B522
:10173000FFF7B2FD34BF0120002010BD546869736B
:1017400020697320554152543200546869732069EE
:1017500073205541525433007817000800000020D0
:101760001C00000050010008941700082000002011
:101770005808000070010008000000000000000090
:101780003000640000000000000000000000300095
:0417900064000000F1
:04000005080001B539
:00000001FF
