:020000040800F2
:100000006806002099010008A1010008A30100086A
:10001000A5010008A7010008A901000800000000D0
:10002000000000000000000000000000AB0100081C
:10003000AD01000800000000AF010008B101000898
:10004000B3010008B3010008B3010008B3010008C0
:10005000B3010008B301000855020008B30100080D
:10006000B3010008B3010008B3010008B3010008A0
:10007000B3010008B3010008B3010008B301000890
:10008000B3010008B3010008B3010008B301000880
:10009000B3010008B3010008B3010008B301000870
:1000A000B3010008B3010008B3010008B301000860
:1000B000B3010008B3010008B3010008B301000850
:1000C000B3010008B3010008B3010008B301000840
:1000D000B3010008B3010008B3010008B301000830
:1000E000B3010008B3010008B301000800F002F8F2
:1000F00000F042F814A696E8000CB244B344DA4586
:1001000001D100F039F8BAE80F000FA696E83000E8
:10011000A5EB040504EB0607AAEB0704A7F101070A
:100120004FEA15154FEA3414A4F10104AC4201D38F
:1001300000F022F813F0010F18BFFB1A43F001037F
:1001400000F001F8DBE71847E4050000F4050000C3
:10015000704700000023002400250026103A28BF25
:1001600078C1FBD8520728BF30C148BF0B60704729
:100170001FB51FBD10B510BD00F031F81146FFF7D7
:10018000F7FF00F07BFA00F04FF803B4FFF7F2FF3F
:1001900003BC00F057F800000948804709480047B1
:1001A000FEE7FEE7FEE7FEE7FEE7FEE7FEE7FEE727
:1001B000FEE7FEE704480549054A064B7047000084
:1001C00041040008ED0000086800002068060020D7
:1001D000680200206802002070477047704775462B
:1001E00000F02CF8AE4605006946534620F00700A3
:1001F000854618B020B5FFF7DDFFBDE820404FF081
:1002000000064FF000074FF000084FF0000BAC461F
:10021000ACE8C009ACE8C009ACE8C009ACE8C0096A
:1002200021F007018D46704710B50446AFF30080FA
:100230002046BDE81040FFF7A8BF00000048704707
:100240000000002001491820ABBEFEE72600020096
:100250007047000040F21441C4F20101086840F008
:100260000100086040F26000C2F20000006801284E
:1002700007D1FFE740F26001C2F2000100200860F0
:1002800006E040F26001C2F2000101200860FFE7D1
:100290007047000084B0ADF80E00ADF80C100220DD
:1002A0000190BDF80E00012809D1FFE7019940F641
:1002B0000000C4F2010000EB810002901DE0BDF8D7
:1002C0000E00022809D1FFE7019940F60040C4F270
:1002D000010000EB810002900EE0BDF80E00032843
:1002E00009D1FFE7019941F20000C4F2010000EBDF
:1002F00081000290FFE7FFE7FFE702980068BDF882
:100300000C1001228A401043C8400090009804B0AD
:100310007047000080B500F001F880BD84B0002077
:100320000390029041F20001C4F20201086840F417
:1003300080300860FFE741F20000C4F2020000686C
:1003400000F400300290039801300390FFE7029917
:100350000020019039B9FFE70398B0F5A06018BFFD
:1003600001200190FFE70198C0070028E3D1FFE7D3
:1003700041F20000C4F2020000688003002803D5A7
:10038000FFE70120029002E000200290FFE70298C0
:10039000012851D1FFE742F20001C4F202010868CE
:1003A00040F010000860086820F007000860086846
:1003B00040F00200086041F20401C4F20201009121
:1003C0000868086008680860086840F48060086091
:1003D000086820F47C100860086840F4E8100860A1
:1003E00041F20001C4F20201086840F08070086028
:1003F000FFE741F20000C4F202000068800100281B
:1004000001D4FFE7F5E741F20401C4F202010868F4
:1004100020F003000860086840F002000860FFE771
:1004200041F20400C4F20200006800F00C00082849
:1004300001D0FFE7F4E700E0FFE704B070470000F9
:1004400080B541F20002C4F20202106840F00100DF
:10045000106041F20401C4F2020108680023CFF6E3
:10046000FF031840086010684FF6FF73CFF6F6637D
:1004700018401060106820F480201060086820F494
:10048000FE00086041F20801C4F202014FF41F00AF
:100490000860FFF73FFF4EF60851CEF200014FF023
:1004A0000060086080BD000084B0ADF80E00ADF8BB
:1004B0000C10ADF80A2003200090BDF80E000128B2
:1004C00009D1FFE7009940F60000C4F2010000EBFB
:1004D000810001901DE0BDF80E00022809D1FFE760
:1004E000009940F60040C4F2010000EB8100019049
:1004F0000EE0BDF80E00032809D1FFE7009941F294
:100500000000C4F2010000EB81000190FFE7FFE76B
:10051000FFE7BDF80A0058B1FFE7BDF80A00BDF8D3
:100520000C1000FA01F2019908681043086009E014
:10053000BDF80C10012000FA01F2019908689043FF
:100540000860FFE704B0704781B08DF803009DF9A3
:10055000030000280ED4FFE79DF9031001F01F02ED
:10056000012090404A094EF20011CEF2000141F8FC
:100570002200FFE701B0704784B0ADF80E00ADF87F
:100580000C10ADF80A20ADF80830BDF80C00ADF83D
:1005900002000020ADF80000BDF80C00082809DBBF
:1005A000FFE7BDF802000838ADF802000120ADF801
:1005B0000000FFE7BDF80E00012812D1FFE741F26D
:1005C0001801C4F20201086840F004000860BDF898
:1005D000001040F60000C4F2010000EB8100019021
:1005E0002FE0BDF80E00022812D1FFE741F21801FA
:1005F000C4F20201086840F008000860BDF800106D
:1006000040F60040C4F2010000EB8100019017E0C9
:10061000BDF80E00032812D1FFE741F21801C4F221
:100620000201086840F010000860BDF8001041F2B7
:100630000000C4F2010000EB81000190FFE7FFE73A
:10064000FFE7BDF8020081000F2000FA01F20199D6
:10065000086890430860BDF80A00BDF802108A00DF
:100660009040BDF808100232914040EA0102019921
:1006700008681043086004B07047000080B584B07B
:100680000022029203920120009002231146FFF7FC
:1006900073FF029B0C21032201921046FFF76CFFAF
:1006A0000098019A029B1946FFF766FF029872B6FE
:1006B0000821C4F20101086040F20041C4F20101C6
:1006C000086840F00100086040F20841C4F20101EE
:1006D000086840F0010008600620FFF735FF62B6A9
:1006E000FFE70120002100F001F8FAE780B582B0B1
:1006F000ADF80600ADF80410BDF80600BDF8041012
:10070000FFF7C8FD40B1FFE7BDF80600BDF80410D3
:100710000022FFF7C9FE07E0BDF80600BDF804108F
:100720000122FFF7C1FEFFE702B080BD3C070008D1
:0C073000000000206806000054010008D2
:040000050800019955
:00000001FF
